{
  "contractName": "Voter",
  "abi": [
    {
      "constant": true,
      "inputs": [
        {
          "internalType": "uint256",
          "name": "",
          "type": "uint256"
        }
      ],
      "name": "options",
      "outputs": [
        {
          "internalType": "string",
          "name": "",
          "type": "string"
        }
      ],
      "payable": false,
      "stateMutability": "view",
      "type": "function"
    },
    {
      "constant": true,
      "inputs": [
        {
          "internalType": "uint256",
          "name": "",
          "type": "uint256"
        }
      ],
      "name": "votes",
      "outputs": [
        {
          "internalType": "uint256",
          "name": "",
          "type": "uint256"
        }
      ],
      "payable": false,
      "stateMutability": "view",
      "type": "function"
    },
    {
      "constant": false,
      "inputs": [
        {
          "internalType": "string",
          "name": "option",
          "type": "string"
        }
      ],
      "name": "addOption",
      "outputs": [],
      "payable": false,
      "stateMutability": "nonpayable",
      "type": "function"
    },
    {
      "constant": false,
      "inputs": [],
      "name": "startVoting",
      "outputs": [],
      "payable": false,
      "stateMutability": "nonpayable",
      "type": "function"
    },
    {
      "constant": false,
      "inputs": [
        {
          "internalType": "uint256",
          "name": "option",
          "type": "uint256"
        }
      ],
      "name": "vote",
      "outputs": [],
      "payable": false,
      "stateMutability": "nonpayable",
      "type": "function"
    },
    {
      "constant": false,
      "inputs": [
        {
          "internalType": "string",
          "name": "option",
          "type": "string"
        }
      ],
      "name": "vote",
      "outputs": [],
      "payable": false,
      "stateMutability": "nonpayable",
      "type": "function"
    },
    {
      "constant": true,
      "inputs": [],
      "name": "getVotes",
      "outputs": [
        {
          "internalType": "uint256[]",
          "name": "",
          "type": "uint256[]"
        }
      ],
      "payable": false,
      "stateMutability": "view",
      "type": "function"
    }
  ],
  "bytecode": "0x608060405234801561001057600080fd5b50610cff806100206000396000f3fe608060405234801561001057600080fd5b506004361061007d5760003560e01c8063409e22051161005b578063409e2205146101195780635df81330146101c0578063edc550dc14610202578063fc36e15b146102bd5761007d565b80630121b93f146100825780630dc96015146100b05780631ec6b60a1461010f575b600080fd5b6100ae6004803603602081101561009857600080fd5b8101908080359060200190929190505050610378565b005b6100b8610550565b6040518080602001828103825283818151815260200191508051906020019060200280838360005b838110156100fb5780820151818401526020810190506100e0565b505050509050019250505060405180910390f35b6101176105a8565b005b6101456004803603602081101561012f57600080fd5b8101908080359060200190929190505050610755565b6040518080602001828103825283818151815260200191508051906020019080838360005b8381101561018557808201518184015260208101905061016a565b50505050905090810190601f1680156101b25780820380516001836020036101000a031916815260200191505b509250505060405180910390f35b6101ec600480360360208110156101d657600080fd5b810190808035906020019092919050505061080e565b6040518082815260200191505060405180910390f35b6102bb6004803603602081101561021857600080fd5b810190808035906020019064010000000081111561023557600080fd5b82018360208201111561024757600080fd5b8035906020019184600183028401116401000000008311171561026957600080fd5b91908080601f016020809104026020016040519081016040528093929190818152602001838380828437600081840152601f19601f82011690508083019250505050505050919291929050505061082f565b005b610376600480360360208110156102d357600080fd5b81019080803590602001906401000000008111156102f057600080fd5b82018360208201111561030257600080fd5b8035906020019184600183028401116401000000008311171561032457600080fd5b91908080601f016020809104026020016040519081016040528093929190818152602001838380828437600081840152601f19601f8201169050808301925050505050505091929192905050506108f4565b005b6000811015801561038d575060018054905081105b6103ff576040517f08c379a000000000000000000000000000000000000000000000000000000000815260040180806020018281038252600f8152602001807f496e76616c6964206f7074696f6e21000000000000000000000000000000000081525060200191505060405180910390fd5b600260003373ffffffffffffffffffffffffffffffffffffffff1673ffffffffffffffffffffffffffffffffffffffff16815260200190815260200160002060009054906101000a900460ff16156104bf576040517f08c379a00000000000000000000000000000000000000000000000000000000081526004018080602001828103825260138152602001807f5573657220616c726561647920766f746564210000000000000000000000000081525060200191505060405180910390fd5b6001600082815481106104ce57fe5b906000526020600020015401600082815481106104e757fe5b90600052602060002001819055506001600260003373ffffffffffffffffffffffffffffffffffffffff1673ffffffffffffffffffffffffffffffffffffffff16815260200190815260200160002060006101000a81548160ff02191690831515021790555050565b6060600080548060200260200160405190810160405280929190818152602001828054801561059e57602002820191906000526020600020905b81548152602001906001019080831161058a575b5050505050905090565b600460009054906101000a900460ff161561062b576040517f08c379a00000000000000000000000000000000000000000000000000000000081526004018080602001828103825260058152602001807f6572726f7200000000000000000000000000000000000000000000000000000081525060200191505060405180910390fd5b60018054905060008161063e9190610bdd565b5060008090505b6001805490508110156107375761065a610c09565b60405180604001604052808381526020016001151581525090508060036001848154811061068457fe5b9060005260206000200160405180828054600181600116156101000203166002900480156106e95780601f106106c75761010080835404028352918201916106e9565b820191906000526020600020905b8154815290600101906020018083116106d5575b505091505090815260200160405180910390206000820151816000015560208201518160010160006101000a81548160ff021916908315150217905550905050508080600101915050610645565b506001600460006101000a81548160ff021916908315150217905550565b6001818154811061076257fe5b906000526020600020016000915090508054600181600116156101000203166002900480601f0160208091040260200160405190810160405280929190818152602001828054600181600116156101000203166002900480156108065780601f106107db57610100808354040283529160200191610806565b820191906000526020600020905b8154815290600101906020018083116107e957829003601f168201915b505050505081565b6000818154811061081b57fe5b906000526020600020016000915090505481565b600460009054906101000a900460ff16156108b2576040517f08c379a00000000000000000000000000000000000000000000000000000000081526004018080602001828103825260058152602001807f6572726f7200000000000000000000000000000000000000000000000000000081525060200191505060405180910390fd5b60018190806001815401808255809150509060018203906000526020600020016000909192909190915090805190602001906108ef929190610c25565b505050565b6003816040518082805190602001908083835b6020831061092a5780518252602082019150602081019050602083039250610907565b6001836020036101000a038019825116818451168082178552505050505050905001915050908152602001604051809103902060010160009054906101000a900460ff166109e0576040517f08c379a00000000000000000000000000000000000000000000000000000000081526004018080602001828103825260168152602001807f496e76616c696420737472696e67206f7074696f6e210000000000000000000081525060200191505060405180910390fd5b600260003373ffffffffffffffffffffffffffffffffffffffff1673ffffffffffffffffffffffffffffffffffffffff16815260200190815260200160002060009054906101000a900460ff1615610aa0576040517f08c379a00000000000000000000000000000000000000000000000000000000081526004018080602001828103825260138152602001807f5573657220616c726561647920766f746564210000000000000000000000000081525060200191505060405180910390fd5b610aa8610c09565b6003826040518082805190602001908083835b60208310610ade5780518252602082019150602081019050602083039250610abb565b6001836020036101000a0380198251168184511680821785525050505050509050019150509081526020016040518091039020604051806040016040529081600082015481526020016001820160009054906101000a900460ff161515151581525050905060016000826000015181548110610b5657fe5b9060005260206000200154016000826000015181548110610b7357fe5b90600052602060002001819055506001600260003373ffffffffffffffffffffffffffffffffffffffff1673ffffffffffffffffffffffffffffffffffffffff16815260200190815260200160002060006101000a81548160ff0219169083151502179055505050565b815481835581811115610c0457818360005260206000209182019101610c039190610ca5565b5b505050565b6040518060400160405280600081526020016000151581525090565b828054600181600116156101000203166002900490600052602060002090601f016020900481019282601f10610c6657805160ff1916838001178555610c94565b82800160010185558215610c94579182015b82811115610c93578251825591602001919060010190610c78565b5b509050610ca19190610ca5565b5090565b610cc791905b80821115610cc3576000816000905550600101610cab565b5090565b9056fea265627a7a72315820cabce38f561e8d9528d78273bbe9935e6f696380a7dddb8e4357d29fe67c545664736f6c63430005100032",
  "source": "pragma solidity >=0.4.21 <0.7.0;\n\n\n//pragma experimental ABIEncoderV2;\n\ncontract Voter {\n    uint256[] public votes;\n    string[] public options;\n    mapping(address => bool) hasVoted;\n    struct OptionPos {\n        uint256 pos;\n        bool exists;\n    }\n    mapping(string => OptionPos) optionStrInt;\n    bool votingStarted;\n\n    function addOption(string memory option) public {\n        require((!votingStarted), \"error\");\n        options.push(option);\n    }\n\n    function startVoting() public {\n        require((!votingStarted), \"error\");\n        //    options = _options;\n        votes.length = options.length;\n        for (uint256 i = 0; i < options.length; i++) {\n            OptionPos memory optionPos = OptionPos(i, true);\n            optionStrInt[options[i]] = optionPos;\n        }\n        votingStarted = true;\n    }\n\n    function vote(uint256 option) public {\n        require(option >= 0 && option < options.length, \"Invalid option!\");\n        require(!hasVoted[msg.sender], \"User already voted!\");\n        votes[option] = votes[option] + 1;\n        hasVoted[msg.sender] = true;\n    }\n\n    function vote(string memory option) public {\n        require(optionStrInt[option].exists, \"Invalid string option!\");\n        require(!hasVoted[msg.sender], \"User already voted!\");\n        OptionPos memory op = optionStrInt[option];\n\n        votes[op.pos] = votes[op.pos] + 1;\n        hasVoted[msg.sender] = true;\n    }\n\n    // function getOptions() public view returns (string[] memory) {\n    //     return options;\n    // }\n\n    function getVotes() public view returns (uint256[] memory) {\n        return votes;\n    }\n}\n",
  "sourcePath": "/Users/harikrishnan_midhun/Desktop/work/Learn/Blockchain/Truffle1/contracts/Voter.sol",
  "compiler": {
    "name": "solc",
    "version": "0.5.16+commit.9c3226ce.Emscripten.clang"
  },
  "schemaVersion": "3.1.0",
  "updatedAt": "2020-04-24T17:10:04.918Z",
  "networkType": "ethereum",
  "devdoc": {
    "methods": {}
  },
  "userdoc": {
    "methods": {}
  }
}